:100000000C9452000C9471000C9471000C947100CB
:100010000C9471000C9471000C9471000C9471009C
:100020000C9471000C9471000C9471000C9471008C
:100030000C9471000C9471000C9471000C9471007C
:100040000C9471000C9471000C9471000C9471006C
:100050000C9471000C9471000C9471000C9471005C
:100060000C9471000C9471000C9471000C9471004C
:100070000C9471000C9471000C9471000C9471003C
:100080000C9402010C9471000C9471000C9471009A
:100090000C9471000C9471000C9471000C9471001C
:1000A0000C94710011241FBECFEFCDBFDFE7DEBF80
:1000B00010E4A0E0B0E4EAECF6E000E00BBF02C020
:1000C00007900D92AE30B107D9F720E4AEE0B0E46E
:1000D00001C01D92A331B207E1F70E942D010C94DB
:1000E00063030C94000088ED9CE184BF909368004A
:1000F00091E084BF909362000895CF93DF9300D086
:1001000000D0CDB7DEB7F894E0E4F4E021E021833D
:1001100022E022830E94680220E030E040E851E4BF
:1001200069837A838B839C8369817A818B819C81AB
:100130000E94F6029B01AC0160E074E284E79EE459
:100140000E94C70120E030E040E05FE369837A83EA
:100150008B839C8369817A818B819C810E945B0166
:1001600069837A838B839C8369817A818B819C816B
:100170000E943902462F572FE0E2F8E0408751876E
:1001800083E0878380E28583868180648683109202
:100190000E4078942496CDBFDEBFDF91CF910895B5
:1001A0009091240895FFFCCF8093220808958091B8
:1001B0000E40811101C0089585E08A95F1F7000095
:1001C000F6CF0F931F93CF93DF93EC018B01672B37
:1001D000A1F00E94D70081E080930E40C0931140AF
:1001E000D0931240C00FD11FC0930F40D093104046
:1001F00080912408806280932408DF91CF911F9121
:100200000F9108951F921FB61F9211248F938BB7E1
:100210008F939F93EF93FF93E0911140F0911240E1
:1002200080910F4090911040E817F90798F4CF01A2
:100230000196809311409093124080818093220810
:10024000FF91EF919F918F918BBF8F911F901FBE58
:100250001F90189510920E40F3CF0E94730060E03B
:1002600072EC81E090E00E947D0080910104806842
:1002700080930104C0E86DE070E080E090E40E94AB
:10028000E1000E94D700C09305042FEF81EE94E0B7
:10029000215080409040E1F700C00000C093060468
:1002A0002FEF81EE94E0215080409040E1F700C0B4
:1002B0000000E1CF5058BB27AA270E9472010C947E
:1002C000BC020E94AE0238F00E94B50220F039F460
:1002D0009F3F19F426F40C94AB020EF4E095E7FB73
:1002E0000C94A502E92F0E94CD0258F3BA176207B9
:1002F00073078407950720F079F4A6F50C94EF02B4
:100300000EF4E0950B2EBA2FA02D0B01B901900130
:100310000C01CA01A0011124FF27591B99F0593F74
:1003200050F4503E68F11A16F040A22F232F342FBC
:100330004427585FF3CF469537952795A795F0400A
:100340005395C9F77EF41F16BA0B620B730B840B1F
:10035000BAF09150A1F0FF0FBB1F661F771F881FD7
:10036000C2F70EC0BA0F621F731F841F48F487952F
:1003700077956795B795F7959E3F08F0B0CF939521
:10038000880F08F09927EE0F9795879508950E949A
:10039000DB010C94BC020E94B50258F00E94AE0230
:1003A00040F029F45F3F29F00C94A50251110C9400
:1003B000F0020C94AB020E94CD0268F39923B1F3D2
:1003C000552391F3951B550BBB27AA27621773077B
:1003D000840738F09F5F5F4F220F331F441FAA1F0F
:1003E000A9F335D00E2E3AF0E0E832D091505040CB
:1003F000E695001CCAF72BD0FE2F29D0660F771F79
:10040000881FBB1F261737074807AB07B0E809F05E
:10041000BB0B802DBF01FF2793585F4F3AF09E3FE3
:10042000510578F00C94A5020C94F0025F3FE4F3C0
:10043000983ED4F3869577956795B795F7959F5F26
:10044000C9F7880F911D9695879597F90895E1E072
:10045000660F771F881FBB1F621773078407BA07D1
:1004600020F0621B730B840BBA0BEE1F88F7E0952C
:1004700008950E94D50288F09F5798F0B92F9927C8
:10048000B751B0F0E1F0660F771F881F991F1AF07F
:10049000BA95C9F714C0B13091F00E94EF02B1E0F3
:1004A00008950C94EF02672F782F8827B85F39F0F2
:1004B000B93FCCF3869577956795B395D9F73EF418
:1004C00090958095709561957F4F8F4F9F4F0895C0
:1004D000E89409C097FB3EF49095809570956195DE
:1004E0007F4F8F4F9F4F9923A9F0F92F96E9BB2794
:1004F0009395F695879577956795B795F111F8CF10
:10050000FAF4BB0F11F460FF1BC06F5F7F4F8F4F7A
:100510009F4F16C0882311F096E911C0772321F070
:100520009EE8872F762F05C0662371F096E8862F08
:1005300070E060E02AF09A95660F771F881FDAF75F
:10054000880F9695879597F9089597F99F6780E8A2
:1005500070E060E008959FEF80EC089500240A9415
:100560001616170618060906089500240A9412168E
:100570001306140605060895092E0394000C11F4C1
:10058000882352F0BB0F40F4BF2B11F460FF04C06E
:100590006F5F7F4F8F4F9F4F089557FD9058440FC7
:1005A000551F59F05F3F71F04795880F97FB991FD2
:1005B00061F09F3F79F0879508951216130614068F
:1005C000551FF2CF4695F1DF08C01616170618061C
:1005D000991FF1CF86957105610508940895E894F7
:1005E000BB2766277727CB0197F908950E94090357
:1005F0000C94BC020E94AE0238F00E94B50220F0BA
:10060000952311F00C94A5020C94AB0211240C94C8
:10061000F0020E94CD0270F3959FC1F3950F50E058
:10062000551F629FF001729FBB27F00DB11D639FA4
:10063000AA27F00DB11DAA1F649F6627B00DA11D4A
:10064000661F829F2227B00DA11D621F739FB00DF0
:10065000A11D621F839FA00D611D221F749F332760
:10066000A00D611D231F849F600D211D822F762FF9
:100670006A2F11249F5750409AF0F1F088234AF0D6
:10068000EE0FFF1FBB1F661F771F881F9150504042
:10069000A9F79E3F510580F00C94A5020C94F0023E
:1006A0005F3FE4F3983ED4F3869577956795B795C9
:1006B000F795E7959F5FC1F7FE2B880F911D9695E3
:0A06C000879597F90895F894FFCF8D
:0E06CA0048656C6C6F2C20576F726C642100B9
:00000001FF
